{
  "contractName": "Booking",
  "abi": [
    {
      "anonymous": false,
      "inputs": [
        {
          "indexed": true,
          "internalType": "address",
          "name": "previousOwner",
          "type": "address"
        },
        {
          "indexed": true,
          "internalType": "address",
          "name": "newOwner",
          "type": "address"
        }
      ],
      "name": "OwnershipTransferred",
      "type": "event"
    },
    {
      "inputs": [],
      "name": "owner",
      "outputs": [
        {
          "internalType": "address",
          "name": "",
          "type": "address"
        }
      ],
      "stateMutability": "view",
      "type": "function"
    },
    {
      "inputs": [
        {
          "internalType": "uint256",
          "name": "",
          "type": "uint256"
        }
      ],
      "name": "patients",
      "outputs": [
        {
          "internalType": "address",
          "name": "",
          "type": "address"
        }
      ],
      "stateMutability": "view",
      "type": "function"
    },
    {
      "inputs": [],
      "name": "renounceOwnership",
      "outputs": [],
      "stateMutability": "nonpayable",
      "type": "function"
    },
    {
      "inputs": [
        {
          "internalType": "address",
          "name": "newOwner",
          "type": "address"
        }
      ],
      "name": "transferOwnership",
      "outputs": [],
      "stateMutability": "nonpayable",
      "type": "function"
    },
    {
      "inputs": [
        {
          "internalType": "uint256",
          "name": "appId",
          "type": "uint256"
        }
      ],
      "name": "book",
      "outputs": [
        {
          "internalType": "uint256",
          "name": "",
          "type": "uint256"
        }
      ],
      "stateMutability": "nonpayable",
      "type": "function"
    },
    {
      "inputs": [],
      "name": "getPatients",
      "outputs": [
        {
          "internalType": "address[6]",
          "name": "",
          "type": "address[6]"
        }
      ],
      "stateMutability": "view",
      "type": "function"
    }
  ],
  "bytecode": "0x608060405234801561001057600080fd5b5061003f61002b610044640100000000026401000000009004565b61004c640100000000026401000000009004565b610110565b600033905090565b60008060009054906101000a900473ffffffffffffffffffffffffffffffffffffffff169050816000806101000a81548173ffffffffffffffffffffffffffffffffffffffff021916908373ffffffffffffffffffffffffffffffffffffffff1602179055508173ffffffffffffffffffffffffffffffffffffffff168173ffffffffffffffffffffffffffffffffffffffff167f8be0079c531659141344cd1fd0a4f28419497f9722a3daafe3b4186f6b6457e060405160405180910390a35050565b61091e8061011f6000396000f3fe608060405234801561001057600080fd5b506004361061007f576000357c0100000000000000000000000000000000000000000000000000000000900480631116fd041461008457806312ad1c37146100b4578063715018a6146100d25780638da5cb5b146100dc57806393119a83146100fa578063f2fde38b1461012a575b600080fd5b61009e600480360381019061009991906105be565b610146565b6040516100ab9190610825565b60405180910390f35b6100bc61021d565b6040516100c991906107aa565b60405180910390f35b6100da61029e565b005b6100e4610326565b6040516100f1919061078f565b60405180910390f35b610114600480360381019061010f91906105be565b61034f565b604051610121919061078f565b60405180910390f35b610144600480360381019061013f9190610595565b610385565b005b6000816000811015801561015b575060058111155b61019a576040517f08c379a0000000000000000000000000000000000000000000000000000000008152600401610191906107e5565b60405180910390fd5b33600184600681106101d5577f4e487b7100000000000000000000000000000000000000000000000000000000600052603260045260246000fd5b0160006101000a81548173ffffffffffffffffffffffffffffffffffffffff021916908373ffffffffffffffffffffffffffffffffffffffff16021790555082915050919050565b610225610549565b6001600680602002604051908101604052809291908260068015610294576020028201915b8160009054906101000a900473ffffffffffffffffffffffffffffffffffffffff1673ffffffffffffffffffffffffffffffffffffffff168152602001906001019080831161024a575b5050505050905090565b6102a661047d565b73ffffffffffffffffffffffffffffffffffffffff166102c4610326565b73ffffffffffffffffffffffffffffffffffffffff161461031a576040517f08c379a000000000000000000000000000000000000000000000000000000000815260040161031190610805565b60405180910390fd5b6103246000610485565b565b60008060009054906101000a900473ffffffffffffffffffffffffffffffffffffffff16905090565b6001816006811061035f57600080fd5b016000915054906101000a900473ffffffffffffffffffffffffffffffffffffffff1681565b61038d61047d565b73ffffffffffffffffffffffffffffffffffffffff166103ab610326565b73ffffffffffffffffffffffffffffffffffffffff1614610401576040517f08c379a00000000000000000000000000000000000000000000000000000000081526004016103f890610805565b60405180910390fd5b600073ffffffffffffffffffffffffffffffffffffffff168173ffffffffffffffffffffffffffffffffffffffff161415610471576040517f08c379a0000000000000000000000000000000000000000000000000000000008152600401610468906107c5565b60405180910390fd5b61047a81610485565b50565b600033905090565b60008060009054906101000a900473ffffffffffffffffffffffffffffffffffffffff169050816000806101000a81548173ffffffffffffffffffffffffffffffffffffffff021916908373ffffffffffffffffffffffffffffffffffffffff1602179055508173ffffffffffffffffffffffffffffffffffffffff168173ffffffffffffffffffffffffffffffffffffffff167f8be0079c531659141344cd1fd0a4f28419497f9722a3daafe3b4186f6b6457e060405160405180910390a35050565b6040518060c00160405280600690602082028036833780820191505090505090565b60008135905061057a816108ba565b92915050565b60008135905061058f816108d1565b92915050565b6000602082840312156105a757600080fd5b60006105b58482850161056b565b91505092915050565b6000602082840312156105d057600080fd5b60006105de84828501610580565b91505092915050565b60006105f383836105ff565b60208301905092915050565b6106088161087e565b82525050565b6106178161087e565b82525050565b6106268161084a565b6106308184610862565b925061063b82610840565b8060005b8381101561066c57815161065387826105e7565b965061065e83610855565b92505060018101905061063f565b505050505050565b600061068160268361086d565b91507f4f776e61626c653a206e6577206f776e657220697320746865207a65726f206160008301527f64647265737300000000000000000000000000000000000000000000000000006020830152604082019050919050565b60006106e760318361086d565b91507f4d6178696d756d206e756d626572206f66206170706f696e746d656e7420626f60008301527f6f6b696e677320697320726561636865640000000000000000000000000000006020830152604082019050919050565b600061074d60208361086d565b91507f4f776e61626c653a2063616c6c6572206973206e6f7420746865206f776e65726000830152602082019050919050565b610789816108b0565b82525050565b60006020820190506107a4600083018461060e565b92915050565b600060c0820190506107bf600083018461061d565b92915050565b600060208201905081810360008301526107de81610674565b9050919050565b600060208201905081810360008301526107fe816106da565b9050919050565b6000602082019050818103600083015261081e81610740565b9050919050565b600060208201905061083a6000830184610780565b92915050565b6000819050919050565b600060069050919050565b6000602082019050919050565b600081905092915050565b600082825260208201905092915050565b600061088982610890565b9050919050565b600073ffffffffffffffffffffffffffffffffffffffff82169050919050565b6000819050919050565b6108c38161087e565b81146108ce57600080fd5b50565b6108da816108b0565b81146108e557600080fd5b5056fea264697066735822122091fe7930dac1fd92169865bddd32f998777ffeeae92df8537b7a054993a6310764736f6c63430008000033",
  "immutableReferences": {},
  "source": "// SPDX-License-Identifier: MIT\npragma solidity 0.8.0;\n/// @title Register your medical appointment on the blockchain.\n/// @author JanetMo\n/// @notice This is a test contract, it's only deployed on the testnet. \n/// custom:experimental This is an experimental contract.\n\nimport \"@openzeppelin/contracts/access/Ownable.sol\";\n\n\ncontract Booking is Ownable {\n    address[6] public patients;\n\n    modifier appIdInrange(uint256 _appId) {\n        require(\n            _appId >= 0 && _appId <= 5,\n            \"Maximum number of appointment bookings is reached\"\n        );\n        _;\n    }\n\n    /// Booking a medical appointment\n    function book(uint256 appId) public appIdInrange(appId) returns (uint256) {\n        patients[appId] = msg.sender;\n\n        return appId;\n    }\n\n    /// Retrieving the appointment\n    function getPatients() public view returns (address[6] memory) {\n        return patients;\n    }\n}",
  "sourcePath": "/home/marzmarl/.developer/blockchain-developer-bootcamp-final-project/contracts/Booking.sol",
  "compiler": {
    "name": "solc",
    "version": "0.8.0+commit.c7dfd78e.Emscripten.clang"
  },
  "schemaVersion": "3.4.4",
  "updatedAt": "2022-01-12T20:28:18.238Z",
  "devdoc": {
    "kind": "dev",
    "methods": {
      "owner()": {
        "details": "Returns the address of the current owner."
      },
      "renounceOwnership()": {
        "details": "Leaves the contract without owner. It will not be possible to call `onlyOwner` functions anymore. Can only be called by the current owner. NOTE: Renouncing ownership will leave the contract without an owner, thereby removing any functionality that is only available to the owner."
      },
      "transferOwnership(address)": {
        "details": "Transfers ownership of the contract to a new account (`newOwner`). Can only be called by the current owner."
      }
    },
    "version": 1
  },
  "userdoc": {
    "kind": "user",
    "methods": {
      "book(uint256)": {
        "notice": "Booking a medical appointment"
      },
      "getPatients()": {
        "notice": "Retrieving the appointment"
      }
    },
    "version": 1
  }
}