{
  "contractName": "Booking",
  "abi": [
    {
      "anonymous": false,
      "inputs": [
        {
          "indexed": true,
          "internalType": "address",
          "name": "previousOwner",
          "type": "address"
        },
        {
          "indexed": true,
          "internalType": "address",
          "name": "newOwner",
          "type": "address"
        }
      ],
      "name": "OwnershipTransferred",
      "type": "event"
    },
    {
      "inputs": [],
      "name": "owner",
      "outputs": [
        {
          "internalType": "address",
          "name": "",
          "type": "address"
        }
      ],
      "stateMutability": "view",
      "type": "function",
      "constant": true
    },
    {
      "inputs": [],
      "name": "renounceOwnership",
      "outputs": [],
      "stateMutability": "nonpayable",
      "type": "function"
    },
    {
      "inputs": [
        {
          "internalType": "address",
          "name": "newOwner",
          "type": "address"
        }
      ],
      "name": "transferOwnership",
      "outputs": [],
      "stateMutability": "nonpayable",
      "type": "function"
    },
    {
      "inputs": [
        {
          "internalType": "uint256",
          "name": "appId",
          "type": "uint256"
        }
      ],
      "name": "book",
      "outputs": [
        {
          "internalType": "uint256",
          "name": "",
          "type": "uint256"
        }
      ],
      "stateMutability": "nonpayable",
      "type": "function"
    },
    {
      "inputs": [],
      "name": "getPatients",
      "outputs": [
        {
          "internalType": "address[6]",
          "name": "",
          "type": "address[6]"
        }
      ],
      "stateMutability": "view",
      "type": "function",
      "constant": true
    }
  ],
  "bytecode": "0x608060405234801561001057600080fd5b5061003f61002b610044640100000000026401000000009004565b61004c640100000000026401000000009004565b610110565b600033905090565b60008060009054906101000a900473ffffffffffffffffffffffffffffffffffffffff169050816000806101000a81548173ffffffffffffffffffffffffffffffffffffffff021916908373ffffffffffffffffffffffffffffffffffffffff1602179055508173ffffffffffffffffffffffffffffffffffffffff168173ffffffffffffffffffffffffffffffffffffffff167f8be0079c531659141344cd1fd0a4f28419497f9722a3daafe3b4186f6b6457e060405160405180910390a35050565b6108ad8061011f6000396000f3fe608060405234801561001057600080fd5b5060043610610074576000357c0100000000000000000000000000000000000000000000000000000000900480631116fd041461007957806312ad1c37146100a9578063715018a6146100c75780638da5cb5b146100d1578063f2fde38b146100ef575b600080fd5b610093600480360381019061008e919061054d565b61010b565b6040516100a091906107b4565b60405180910390f35b6100b16101e2565b6040516100be9190610739565b60405180910390f35b6100cf610263565b005b6100d96102eb565b6040516100e6919061071e565b60405180910390f35b61010960048036038101906101049190610524565b610314565b005b60008160008110158015610120575060058111155b61015f576040517f08c379a000000000000000000000000000000000000000000000000000000000815260040161015690610774565b60405180910390fd5b336001846006811061019a577f4e487b7100000000000000000000000000000000000000000000000000000000600052603260045260246000fd5b0160006101000a81548173ffffffffffffffffffffffffffffffffffffffff021916908373ffffffffffffffffffffffffffffffffffffffff16021790555082915050919050565b6101ea6104d8565b6001600680602002604051908101604052809291908260068015610259576020028201915b8160009054906101000a900473ffffffffffffffffffffffffffffffffffffffff1673ffffffffffffffffffffffffffffffffffffffff168152602001906001019080831161020f575b5050505050905090565b61026b61040c565b73ffffffffffffffffffffffffffffffffffffffff166102896102eb565b73ffffffffffffffffffffffffffffffffffffffff16146102df576040517f08c379a00000000000000000000000000000000000000000000000000000000081526004016102d690610794565b60405180910390fd5b6102e96000610414565b565b60008060009054906101000a900473ffffffffffffffffffffffffffffffffffffffff16905090565b61031c61040c565b73ffffffffffffffffffffffffffffffffffffffff1661033a6102eb565b73ffffffffffffffffffffffffffffffffffffffff1614610390576040517f08c379a000000000000000000000000000000000000000000000000000000000815260040161038790610794565b60405180910390fd5b600073ffffffffffffffffffffffffffffffffffffffff168173ffffffffffffffffffffffffffffffffffffffff161415610400576040517f08c379a00000000000000000000000000000000000000000000000000000000081526004016103f790610754565b60405180910390fd5b61040981610414565b50565b600033905090565b60008060009054906101000a900473ffffffffffffffffffffffffffffffffffffffff169050816000806101000a81548173ffffffffffffffffffffffffffffffffffffffff021916908373ffffffffffffffffffffffffffffffffffffffff1602179055508173ffffffffffffffffffffffffffffffffffffffff168173ffffffffffffffffffffffffffffffffffffffff167f8be0079c531659141344cd1fd0a4f28419497f9722a3daafe3b4186f6b6457e060405160405180910390a35050565b6040518060c00160405280600690602082028036833780820191505090505090565b60008135905061050981610849565b92915050565b60008135905061051e81610860565b92915050565b60006020828403121561053657600080fd5b6000610544848285016104fa565b91505092915050565b60006020828403121561055f57600080fd5b600061056d8482850161050f565b91505092915050565b6000610582838361058e565b60208301905092915050565b6105978161080d565b82525050565b6105a68161080d565b82525050565b6105b5816107d9565b6105bf81846107f1565b92506105ca826107cf565b8060005b838110156105fb5781516105e28782610576565b96506105ed836107e4565b9250506001810190506105ce565b505050505050565b60006106106026836107fc565b91507f4f776e61626c653a206e6577206f776e657220697320746865207a65726f206160008301527f64647265737300000000000000000000000000000000000000000000000000006020830152604082019050919050565b60006106766031836107fc565b91507f4d6178696d756d206e756d626572206f66206170706f696e746d656e7420626f60008301527f6f6b696e677320697320726561636865640000000000000000000000000000006020830152604082019050919050565b60006106dc6020836107fc565b91507f4f776e61626c653a2063616c6c6572206973206e6f7420746865206f776e65726000830152602082019050919050565b6107188161083f565b82525050565b6000602082019050610733600083018461059d565b92915050565b600060c08201905061074e60008301846105ac565b92915050565b6000602082019050818103600083015261076d81610603565b9050919050565b6000602082019050818103600083015261078d81610669565b9050919050565b600060208201905081810360008301526107ad816106cf565b9050919050565b60006020820190506107c9600083018461070f565b92915050565b6000819050919050565b600060069050919050565b6000602082019050919050565b600081905092915050565b600082825260208201905092915050565b60006108188261081f565b9050919050565b600073ffffffffffffffffffffffffffffffffffffffff82169050919050565b6000819050919050565b6108528161080d565b811461085d57600080fd5b50565b6108698161083f565b811461087457600080fd5b5056fea26469706673582212203cbc527655cefdbdb30669328c777f05f7a802c9936522001223d35beb38aaa764736f6c63430008000033",
  "immutableReferences": {},
  "source": "// SPDX-License-Identifier: MIT\npragma solidity 0.8.0;\n/// @title Register your medical appointment on the blockchain.\n/// @author JanetMo\n/// @notice This is a test contract, it's only deployed on the testnet. \n/// custom:experimental This is an experimental contract.\n\nimport \"@openzeppelin/contracts/access/Ownable.sol\";\n\ncontract Booking is Ownable {\n    address[6] patients;\n\n    modifier appIdInrange(uint256 _appId) {\n        require(\n            _appId >= 0 && _appId <= 5,\n            \"Maximum number of appointment bookings is reached\"\n        );\n        _;\n    }\n\n    /// Booking a medical appointment\n    function book(uint256 appId) public appIdInrange(appId) returns (uint256) {\n        patients[appId] = msg.sender;\n\n        return appId;\n    }\n\n    /// Retrieving the appointment\n    function getPatients() public view returns (address[6] memory) {\n        return patients;\n    }\n}",
  "sourcePath": "/home/marzmarl/.developer/blockchain-developer-bootcamp-final-project/contracts/Booking.sol",
  "compiler": {
    "name": "solc",
    "version": "0.8.0+commit.c7dfd78e.Emscripten.clang"
  },
  "schemaVersion": "3.4.4",
  "updatedAt": "2022-01-10T21:31:29.767Z",
  "networkType": "ethereum",
  "devdoc": {
    "kind": "dev",
    "methods": {
      "owner()": {
        "details": "Returns the address of the current owner."
      },
      "renounceOwnership()": {
        "details": "Leaves the contract without owner. It will not be possible to call `onlyOwner` functions anymore. Can only be called by the current owner. NOTE: Renouncing ownership will leave the contract without an owner, thereby removing any functionality that is only available to the owner."
      },
      "transferOwnership(address)": {
        "details": "Transfers ownership of the contract to a new account (`newOwner`). Can only be called by the current owner."
      }
    },
    "version": 1
  },
  "userdoc": {
    "kind": "user",
    "methods": {
      "book(uint256)": {
        "notice": "Booking a medical appointment"
      },
      "getPatients()": {
        "notice": "Retrieving the appointment"
      }
    },
    "version": 1
  }
}