{
  "contractName": "Booking",
  "abi": [
    {
      "inputs": [
        {
          "internalType": "uint256",
          "name": "",
          "type": "uint256"
        }
      ],
      "name": "patients",
      "outputs": [
        {
          "internalType": "address",
          "name": "",
          "type": "address"
        }
      ],
      "stateMutability": "view",
      "type": "function"
    },
    {
      "inputs": [
        {
          "internalType": "uint256",
          "name": "appId",
          "type": "uint256"
        }
      ],
      "name": "book",
      "outputs": [
        {
          "internalType": "uint256",
          "name": "",
          "type": "uint256"
        }
      ],
      "stateMutability": "nonpayable",
      "type": "function"
    },
    {
      "inputs": [],
      "name": "getPatients",
      "outputs": [
        {
          "internalType": "address[16]",
          "name": "",
          "type": "address[16]"
        }
      ],
      "stateMutability": "view",
      "type": "function"
    }
  ],
  "bytecode": "0x608060405234801561001057600080fd5b5061043b806100206000396000f3fe608060405234801561001057600080fd5b506004361061005e576000357c0100000000000000000000000000000000000000000000000000000000900480631116fd041461006357806312ad1c371461009357806393119a83146100b1575b600080fd5b61007d6004803603810190610078919061026e565b6100e1565b60405161008a919061036a565b60405180910390f35b61009b61017f565b6040516100a8919061034e565b60405180910390f35b6100cb60048036038101906100c6919061026e565b610200565b6040516100d89190610333565b60405180910390f35b60008082101580156100f4575060058211155b6100fd57600080fd5b3360008360108110610138577f4e487b7100000000000000000000000000000000000000000000000000000000600052603260045260246000fd5b0160006101000a81548173ffffffffffffffffffffffffffffffffffffffff021916908373ffffffffffffffffffffffffffffffffffffffff160217905550819050919050565b610187610236565b60006010806020026040519081016040528092919082601080156101f6576020028201915b8160009054906101000a900473ffffffffffffffffffffffffffffffffffffffff1673ffffffffffffffffffffffffffffffffffffffff16815260200190600101908083116101ac575b5050505050905090565b6000816010811061021057600080fd5b016000915054906101000a900473ffffffffffffffffffffffffffffffffffffffff1681565b604051806102000160405280601090602082028036833780820191505090505090565b600081359050610268816103ee565b92915050565b60006020828403121561028057600080fd5b600061028e84828501610259565b91505092915050565b60006102a383836102af565b60208301905092915050565b6102b8816103b2565b82525050565b6102c7816103b2565b82525050565b6102d68161038f565b6102e081846103a7565b92506102eb82610385565b8060005b8381101561031c5781516103038782610297565b965061030e8361039a565b9250506001810190506102ef565b505050505050565b61032d816103e4565b82525050565b600060208201905061034860008301846102be565b92915050565b60006102008201905061036460008301846102cd565b92915050565b600060208201905061037f6000830184610324565b92915050565b6000819050919050565b600060109050919050565b6000602082019050919050565b600081905092915050565b60006103bd826103c4565b9050919050565b600073ffffffffffffffffffffffffffffffffffffffff82169050919050565b6000819050919050565b6103f7816103e4565b811461040257600080fd5b5056fea2646970667358221220f3d3e9de2f7b8b56d41da0fe11b69b45ac4e4e0a98b2e2aa4766bd1aa5496acc64736f6c63430008000033",
  "immutableReferences": {},
  "source": "// SPDX-License-Identifier: MIT\npragma solidity 0.8.0;\n/// @title Register your medical appointment on the blockchain.\n/// @author JanetMo\n/// @notice This is a test contract, it's only deployed on the testnet.\n/// custom:experimental This is an experimental contract.\n\n//import \"@openzeppelin/contracts/access/Ownable.sol\";\n\ncontract Booking //is Ownable\n{ \n\naddress[16] public patients;\n\n/// Booking a medical appointment\nfunction book(uint appId) public returns (uint) {\n  require(appId >= 0 && appId <= 5);\n\n  patients[appId] = msg.sender;\n\n  return appId;\n  }\n\n  /// Retrieving the appointment\nfunction getPatients() public view returns (address[16] memory) {\n  return patients;\n    }\n\n\n\n}",
  "sourcePath": "/home/marzmarl/.developer/blockchain-developer-bootcamp-final-project/contracts/Booking.sol",
  "compiler": {
    "name": "solc",
    "version": "0.8.0+commit.c7dfd78e.Emscripten.clang"
  },
  "schemaVersion": "3.4.4",
  "updatedAt": "2022-01-05T18:26:53.537Z",
  "devdoc": {
    "author": "JanetMo",
    "kind": "dev",
    "methods": {},
    "title": "Register your medical appointment on the blockchain.",
    "version": 1
  },
  "userdoc": {
    "kind": "user",
    "methods": {
      "book(uint256)": {
        "notice": "Booking a medical appointment"
      },
      "getPatients()": {
        "notice": "Retrieving the appointment"
      }
    },
    "notice": "This is a test contract, it's only deployed on the testnet. custom:experimental This is an experimental contract.",
    "version": 1
  }
}