{
  "contractName": "Booking",
  "abi": [
    {
      "anonymous": false,
      "inputs": [
        {
          "indexed": true,
          "internalType": "address",
          "name": "previousOwner",
          "type": "address"
        },
        {
          "indexed": true,
          "internalType": "address",
          "name": "newOwner",
          "type": "address"
        }
      ],
      "name": "OwnershipTransferred",
      "type": "event"
    },
    {
      "inputs": [],
      "name": "owner",
      "outputs": [
        {
          "internalType": "address",
          "name": "",
          "type": "address"
        }
      ],
      "stateMutability": "view",
      "type": "function"
    },
    {
      "inputs": [
        {
          "internalType": "uint256",
          "name": "",
          "type": "uint256"
        }
      ],
      "name": "patients",
      "outputs": [
        {
          "internalType": "address",
          "name": "",
          "type": "address"
        }
      ],
      "stateMutability": "view",
      "type": "function"
    },
    {
      "inputs": [],
      "name": "renounceOwnership",
      "outputs": [],
      "stateMutability": "nonpayable",
      "type": "function"
    },
    {
      "inputs": [
        {
          "internalType": "address",
          "name": "newOwner",
          "type": "address"
        }
      ],
      "name": "transferOwnership",
      "outputs": [],
      "stateMutability": "nonpayable",
      "type": "function"
    },
    {
      "inputs": [
        {
          "internalType": "uint256",
          "name": "appId",
          "type": "uint256"
        }
      ],
      "name": "book",
      "outputs": [
        {
          "internalType": "uint256",
          "name": "",
          "type": "uint256"
        }
      ],
      "stateMutability": "nonpayable",
      "type": "function"
    },
    {
      "inputs": [],
      "name": "getPatients",
      "outputs": [
        {
          "internalType": "address[16]",
          "name": "",
          "type": "address[16]"
        }
      ],
      "stateMutability": "view",
      "type": "function"
    }
  ],
  "bytecode": "0x608060405234801561001057600080fd5b5061003f61002b610044640100000000026401000000009004565b61004c640100000000026401000000009004565b610110565b600033905090565b60008060009054906101000a900473ffffffffffffffffffffffffffffffffffffffff169050816000806101000a81548173ffffffffffffffffffffffffffffffffffffffff021916908373ffffffffffffffffffffffffffffffffffffffff1602179055508173ffffffffffffffffffffffffffffffffffffffff168173ffffffffffffffffffffffffffffffffffffffff167f8be0079c531659141344cd1fd0a4f28419497f9722a3daafe3b4186f6b6457e060405160405180910390a35050565b6108618061011f6000396000f3fe608060405234801561001057600080fd5b506004361061007f576000357c0100000000000000000000000000000000000000000000000000000000900480631116fd041461008457806312ad1c37146100b4578063715018a6146100d25780638da5cb5b146100dc57806393119a83146100fa578063f2fde38b1461012a575b600080fd5b61009e60048036038101906100999190610586565b610146565b6040516100ab9190610768565b60405180910390f35b6100bc6101e4565b6040516100c9919061070c565b60405180910390f35b6100da610265565b005b6100e46102ed565b6040516100f191906106f1565b60405180910390f35b610114600480360381019061010f9190610586565b610316565b60405161012191906106f1565b60405180910390f35b610144600480360381019061013f919061055d565b61034c565b005b6000808210158015610159575060058211155b61016257600080fd5b336001836010811061019d577f4e487b7100000000000000000000000000000000000000000000000000000000600052603260045260246000fd5b0160006101000a81548173ffffffffffffffffffffffffffffffffffffffff021916908373ffffffffffffffffffffffffffffffffffffffff160217905550819050919050565b6101ec610510565b600160108060200260405190810160405280929190826010801561025b576020028201915b8160009054906101000a900473ffffffffffffffffffffffffffffffffffffffff1673ffffffffffffffffffffffffffffffffffffffff1681526020019060010190808311610211575b5050505050905090565b61026d610444565b73ffffffffffffffffffffffffffffffffffffffff1661028b6102ed565b73ffffffffffffffffffffffffffffffffffffffff16146102e1576040517f08c379a00000000000000000000000000000000000000000000000000000000081526004016102d890610748565b60405180910390fd5b6102eb600061044c565b565b60008060009054906101000a900473ffffffffffffffffffffffffffffffffffffffff16905090565b6001816010811061032657600080fd5b016000915054906101000a900473ffffffffffffffffffffffffffffffffffffffff1681565b610354610444565b73ffffffffffffffffffffffffffffffffffffffff166103726102ed565b73ffffffffffffffffffffffffffffffffffffffff16146103c8576040517f08c379a00000000000000000000000000000000000000000000000000000000081526004016103bf90610748565b60405180910390fd5b600073ffffffffffffffffffffffffffffffffffffffff168173ffffffffffffffffffffffffffffffffffffffff161415610438576040517f08c379a000000000000000000000000000000000000000000000000000000000815260040161042f90610728565b60405180910390fd5b6104418161044c565b50565b600033905090565b60008060009054906101000a900473ffffffffffffffffffffffffffffffffffffffff169050816000806101000a81548173ffffffffffffffffffffffffffffffffffffffff021916908373ffffffffffffffffffffffffffffffffffffffff1602179055508173ffffffffffffffffffffffffffffffffffffffff168173ffffffffffffffffffffffffffffffffffffffff167f8be0079c531659141344cd1fd0a4f28419497f9722a3daafe3b4186f6b6457e060405160405180910390a35050565b604051806102000160405280601090602082028036833780820191505090505090565b600081359050610542816107fd565b92915050565b60008135905061055781610814565b92915050565b60006020828403121561056f57600080fd5b600061057d84828501610533565b91505092915050565b60006020828403121561059857600080fd5b60006105a684828501610548565b91505092915050565b60006105bb83836105c7565b60208301905092915050565b6105d0816107c1565b82525050565b6105df816107c1565b82525050565b6105ee8161078d565b6105f881846107a5565b925061060382610783565b8060005b8381101561063457815161061b87826105af565b965061062683610798565b925050600181019050610607565b505050505050565b60006106496026836107b0565b91507f4f776e61626c653a206e6577206f776e657220697320746865207a65726f206160008301527f64647265737300000000000000000000000000000000000000000000000000006020830152604082019050919050565b60006106af6020836107b0565b91507f4f776e61626c653a2063616c6c6572206973206e6f7420746865206f776e65726000830152602082019050919050565b6106eb816107f3565b82525050565b600060208201905061070660008301846105d6565b92915050565b60006102008201905061072260008301846105e5565b92915050565b600060208201905081810360008301526107418161063c565b9050919050565b60006020820190508181036000830152610761816106a2565b9050919050565b600060208201905061077d60008301846106e2565b92915050565b6000819050919050565b600060109050919050565b6000602082019050919050565b600081905092915050565b600082825260208201905092915050565b60006107cc826107d3565b9050919050565b600073ffffffffffffffffffffffffffffffffffffffff82169050919050565b6000819050919050565b610806816107c1565b811461081157600080fd5b50565b61081d816107f3565b811461082857600080fd5b5056fea2646970667358221220ef48602e2d2cec22ff20eac25a7019b04071478ae1070bfa604dafaad8c3cee264736f6c63430008000033",
  "immutableReferences": {},
  "source": "// SPDX-License-Identifier: MIT\npragma solidity 0.8.0;\n/// @title Register your medical appointment on the blockchain.\n/// @author JanetMo\n/// @notice This is a test contract, it's only deployed on the testnet.\n/// custom:experimental This is an experimental contract.\n\nimport \"@openzeppelin/contracts/access/Ownable.sol\";\n\ncontract Booking is Ownable\n{ \n\naddress[16] public patients;\n\n/// Booking a medical appointment\nfunction book(uint appId) public returns (uint) {\n  require(appId >= 0 && appId <= 5);\n\n  patients[appId] = msg.sender;\n\n  return appId;\n  }\n\n  /// Retrieving the appointment\nfunction getPatients() public view returns (address[16] memory) {\n  return patients;\n    }\n\n\n\n}",
  "sourcePath": "/home/marzmarl/.developer/blockchain-developer-bootcamp-final-project/contracts/Booking.sol",
  "compiler": {
    "name": "solc",
    "version": "0.8.0+commit.c7dfd78e.Emscripten.clang"
  },
  "schemaVersion": "3.4.4",
  "updatedAt": "2022-01-03T16:24:47.369Z",
  "devdoc": {
    "kind": "dev",
    "methods": {
      "owner()": {
        "details": "Returns the address of the current owner."
      },
      "renounceOwnership()": {
        "details": "Leaves the contract without owner. It will not be possible to call `onlyOwner` functions anymore. Can only be called by the current owner. NOTE: Renouncing ownership will leave the contract without an owner, thereby removing any functionality that is only available to the owner."
      },
      "transferOwnership(address)": {
        "details": "Transfers ownership of the contract to a new account (`newOwner`). Can only be called by the current owner."
      }
    },
    "version": 1
  },
  "userdoc": {
    "kind": "user",
    "methods": {
      "book(uint256)": {
        "notice": "Booking a medical appointment"
      },
      "getPatients()": {
        "notice": "Retrieving the appointment"
      }
    },
    "version": 1
  }
}