{
  "contractName": "Booking",
  "abi": [
    {
      "constant": true,
      "inputs": [
        {
          "internalType": "uint256",
          "name": "",
          "type": "uint256"
        }
      ],
      "name": "patients",
      "outputs": [
        {
          "internalType": "address",
          "name": "",
          "type": "address"
        }
      ],
      "payable": false,
      "stateMutability": "view",
      "type": "function"
    },
    {
      "constant": false,
      "inputs": [
        {
          "internalType": "uint256",
          "name": "appId",
          "type": "uint256"
        }
      ],
      "name": "book",
      "outputs": [
        {
          "internalType": "uint256",
          "name": "",
          "type": "uint256"
        }
      ],
      "payable": false,
      "stateMutability": "nonpayable",
      "type": "function"
    },
    {
      "constant": true,
      "inputs": [],
      "name": "getPatients",
      "outputs": [
        {
          "internalType": "address[16]",
          "name": "",
          "type": "address[16]"
        }
      ],
      "payable": false,
      "stateMutability": "view",
      "type": "function"
    }
  ],
  "bytecode": "0x608060405234801561001057600080fd5b506102b9806100206000396000f3fe608060405234801561001057600080fd5b50600436106100415760003560e01c80631116fd041461004657806312ad1c371461008857806393119a83146100ce575b600080fd5b6100726004803603602081101561005c57600080fd5b810190808035906020019092919050505061013c565b6040518082815260200191505060405180910390f35b6100906101ad565b6040518082601060200280838360005b838110156100bb5780820151818401526020810190506100a0565b5050505090500191505060405180910390f35b6100fa600480360360208110156100e457600080fd5b810190808035906020019092919050505061022e565b604051808273ffffffffffffffffffffffffffffffffffffffff1673ffffffffffffffffffffffffffffffffffffffff16815260200191505060405180910390f35b600080821015801561014f575060058211155b61015857600080fd5b336000836010811061016657fe5b0160006101000a81548173ffffffffffffffffffffffffffffffffffffffff021916908373ffffffffffffffffffffffffffffffffffffffff160217905550819050919050565b6101b5610261565b6000601080602002604051908101604052809291908260108015610224576020028201915b8160009054906101000a900473ffffffffffffffffffffffffffffffffffffffff1673ffffffffffffffffffffffffffffffffffffffff16815260200190600101908083116101da575b5050505050905090565b6000816010811061023b57fe5b016000915054906101000a900473ffffffffffffffffffffffffffffffffffffffff1681565b60405180610200016040528060109060208202803883398082019150509050509056fea265627a7a723158202db0d49cbc4c784d796a4bf765b11cb98d2915fec7922f1759f609e7c2fb498964736f6c63430005100032",
  "source": "// SPDX-License-Identifier: MIT\npragma solidity ^0.5.0;\n/// @title Register your medical appointment on the blockchain.\n/// @author JanetMo\n/// @notice This is a test contract, it's only deployed on the testnet.\n/// custom:experimental This is an experimental contract.\n\ncontract Booking {\n\naddress[16] public patients;\n\n/// Booking a medical appointment\nfunction book(uint appId) public returns (uint) {\n  require(appId >= 0 && appId <= 5);\n\n  patients[appId] = msg.sender;\n\n  return appId;\n  }\n\n  /// Retrieving the appointment\nfunction getPatients() public view returns (address[16] memory) {\n  return patients;\n    }\n\n\n\n}",
  "sourcePath": "/home/marzmarl/.developer/blockchain-developer-bootcamp-final-project/contracts/Booking.sol",
  "compiler": {
    "name": "solc",
    "version": "0.5.16+commit.9c3226ce.Emscripten.clang"
  },
  "schemaVersion": "3.4.3",
  "updatedAt": "2021-12-26T10:13:16.775Z",
  "devdoc": {
    "author": "JanetMo",
    "methods": {},
    "title": "Register your medical appointment on the blockchain."
  },
  "userdoc": {
    "methods": {
      "book(uint256)": {
        "notice": "Booking a medical appointment"
      },
      "getPatients()": {
        "notice": "Retrieving the appointment"
      }
    },
    "notice": "This is a test contract, it's only deployed on the testnet. custom:experimental This is an experimental contract."
  }
}